:03000000020B3DB3
:0100030032CA
:01000B0032C2
:0100130032BA
:01001B0032B2
:0100230032AA
:03005B000209E4B3
:10005E00C000C001790378C40000D8FCD9F8D001E3
:10006E00D00022C000C001798A78B4D8FED9FADA5D
:10007E00F6D001D00022D29512005EC29522A2E7E0
:10008E0092A5A2E692A4A2E592A3A2E492A21200E5
:10009E008412005EA2E392A5A2E292A4A2E192A330
:1000AE00A2E092A212008422D29702008CC2970282
:1000BE00008CC295C296C0027A28120071D00274CA
:1000CE00331200BB74331200BB74321200BB74289F
:1000DE001200BB740C1200BB74011200BBC0027A7A
:1000EE0002120071D00222E49360061200B6A380C1
:1000FE00F622444044800200BBC0E0E8C4540F44E2
:0F010E00301200B6E8540F44301200B6D0E02291
:10011D00C0E0C0D0C000C001C002E4F541F542F519
:10012D0043F544F5457A20E538A2E779047835E6BC
:10013D0033F608D9FA79057841E636D4F608D9F9B7
:10014D00DAE5D002D001D000D0D0D0E022C0E0C09E
:10015D00D0C000C001C002E4F541F542F543F544BD
:10016D00F5457A20E538A2E779047835E633F608C7
:10017D00D9FA79057841C0D0E6243320E70224D09E
:10018D0020E30224FDD0D033F608D9EADAD6D00226
:10019D00D001D000D0D0D0E022C0E0C0D0C000C08F
:1001AD0001C0027A207905C37845E613C0D030E747
:1001BD000224D030E30224FDF618D0D0D9EC790416
:1001CD007838E613F618D9FADADBD002D001D00070
:1001DD00D0D0D0E022C0E0C0D0E5352539F535E5E9
:1001ED0036353AF536E537353BF537E538353CF5F7
:1001FD0038D0D0D0E022C0E0C0D0C3E5359539F578
:10020D0035E536953AF536E537953BF537E53895CD
:10021D003CF538D0D0D0E022C0E0C0D0C3E5359554
:10022D0039E536953AE537953BE538953C9202D060
:10023D00D0D0E022C0E0C0D0C3E5399535E53A9580
:10024D0036E53B9537E53C95389202D0D0D0E0228B
:10025D00C0E0C0D0C202C3E53995357014E53A95BA
:10026D0036700EE53B95377008E53C95387002D237
:10027D0002D0D0D0E02212025D2002030202412200
:10028D0012025D20020302022522C0E0C0F0C0D0A0
:10029D00C000C001C002C003E5358539F0A4F8A93E
:1002AD00F0E5368539F0A429F9E435F0FAE5358520
:1002BD003AF0A429F9E5F03AFAE433FBE53785394C
:1002CD00F0A42AFAE5F03BFBE536853AF0A42AFACC
:1002DD00E5F03BFBE535853BF0A42AFAE5F03BFB69
:1002ED00E5388539F0A42BFBE537853AF0A42BFBD7
:1002FD00E536853BF0A42BFBE535853CF0A42BFBC7
:10030D008B388A3789368835D003D002D001D0009A
:10031D00D0D0D0F0D0E022C0E0C0D0C000C001C02D
:10032D0002C003C0047C20E4F8F9FAFBC3E53533C1
:10033D00F535E53633F536E53733F537E53833F54D
:10034D0038E833F8E933F9EA33FAEB33FBC3E895D0
:10035D0039E9953AEA953BEB953C4013E89539F828
:10036D00E9953AF9EA953BFAEB953CFB433501DC0F
:10037D00BBD004D003D002D001D000D0D0D0E02229
:10038D0043617061636974616E63653A006E660006
:10039D000205D4C201D283C2A0C2837403120A5FC4
:1003AD007400120A5F7400120A5F744D120A5F75B1
:1003BD0032007531D97530B87400120A5FD2A0D2EF
:1003CD000122C201D283C2A0C2837403120A5F74D8
:1003DD0000120A5F74DA120A5F7405120A5F753231
:1003ED00007531B375309B7400120A5FD2A0D20133
:1003FD0022C201D283C2A0C2837403120A5F7401A8
:10040D00120A5F748D120A5F74A0120A5F753200B2
:10041D007531BC7530CA7400120A5FD2A0D20122A8
:10042D00C201D283C2A0C2837403120A5F74021286
:10043D000A5F744A120A5F746A120A5F7532007598
:10044D0031D67530BD7400120A5FD2A0D20122C21E
:10045D0001D283C2A0C2837403120A5F7403120A0D
:10046D005F7421120A5F7427120A5F7532007531AD
:10047D00CE7530187400120A5FD2A0D20122C201CB
:10048D00D283C2A0C2837403120A5F7403120A5F7F
:10049D0074EF120A5F743F120A5F7532007531CA2C
:1004AD007530517400120A5FD2A0D20122C201D25E
:1004BD0083C2A0C2837403120A5F7404120A5F74AC
:1004CD00B9120A5F7490120A5F7532007531D075DA
:1004DD0030D07400120A5FD2A0D20122C201D283A1
:1004ED00C2A0C2837403120A5F7405120A5F748A74
:1004FD00120A5F7460120A5F7532007531D575305E
:10050D00C47400120A5FD2A0D20122C201D283C2EA
:10051D00A0C2837403120A5F7406120A5F7460121C
:10052D000A5F7424120A5F7532007531D47530E399
:10053D007400120A5FD2A0D20122C201D283C2A0DE
:10054D00C2837403120A5F7407120A5F7435120AAC
:10055D005F7407120A5F7532007531CD7530D17435
:10056D0000120A5FD2A0D20122C201D283C2A0C260
:10057D00837403120A5F7408120A5F7402120A5F11
:10058D0074D8120A5F7532007531C67530917400DA
:10059D00120A5FD2A0D20122C201D283C2A0C283AD
:1005AD007403120A5F7408120A5F74C9120A5F7429
:1005BD0069120A5F75320175314E75303E74001245
:1005CD000A5FD2A0D20122753928753A23753B00F6
:1005DD00753C0012028320020302068875392E75C0
:1005ED003A27753B00753C0012028D30020612034E
:1005FD00A0020688753974753A27753B00753C0065
:10060D00120283200203020688753992753A277506
:10061D003B00753C0012028D3002061203CF02061C
:10062D00887539CE753A27753B00753C00120283EB
:10063D002002030206887539EC753A27753B007563
:10064D003C0012028D3002061203FE020688753937
:10065D0055753A28753B00753C0012028320020344
:10066D0002068875397D753A28753B00753C001278
:10067D00028D30020912042D0206880206B8753962
:10068D00A0753A28753B00753C00120283200203C9
:10069D000206B87539DC753A28753B00753C0012B9
:1006AD00028D30020912045C0206B80206E87539A3
:1006BD0018753A29753B00753C0012028320020320
:1006CD000206E8753940753A29753B00753C0012F4
:1006DD00028D30020912048B0206E802080E7539EC
:1006ED007C753A29753B00753C001202832002038C
:1006FD0002080E7539A4753A29753B00753C001238
:10070D00028D3002061204BA02080E7539B8753A18
:10071D0029753B00753C0012028320020302080E6E
:10072D007539E0753A29753B00753C0012028D3024
:10073D0002061204E902080E7539FE753A29753B59
:10074D0000753C0012028320020302080E75392643
:10075D00753A2A753B00753C0012028D3002061267
:10076D00051802080E753930753A2A753B00753C2F
:10077D000012028320020302080E75394E753A2AC3
:10078D00753B00753C0012028D30020612054702C2
:10079D00080E75394E753A2A753B00753C001202EC
:1007AD008320020302080E753976753A2A753B00CF
:1007BD00753C0012028D30020612057602080E7588
:1007CD003994753A2A753B00753C0012028320025C
:1007DD000302080E7539B0753A36753B00753C004D
:1007ED0012028D3002061205A502080E7539B0757C
:1007FD003A36753B00753C00120283200203020855
:10080D000E22C0E0740114120100D0E0C000A84512
:10081D00120107D000C000A844120107D000C0008B
:10082D00A843120107D000C0E0742E1200B6D0E02C
:10083D00C000A842120107D000C000A84112010754
:10084D00D000C0E0740114120100D0E0E54554F071
:10085D00C460030208FDC0E074201200B6D0E0E5CC
:10086D0045540F60030208FDC0E074201200B6D09D
:10087D00E0E54454F0C460030208FDC0E0742012AA
:10088D0000B6D0E0E544540F60030208FDC0E074EB
:10089D00201200B6D0E0E54354F0C460030208FD19
:1008AD00C0E074201200B6D0E0E543540F6003029F
:1008BD0008FDC0E074201200B6D0E0E54254F0C44B
:1008CD0060030208FDC0E074201200B6D0E0E542DE
:1008DD00540F60030208FDC0E074201200B6D0E092
:1008ED00E54154F0C47009C0E074201200B6D0E0A8
:1008FD0022C0E0740114120102D0E0C000A845121C
:10090D000107D000C000A844120107D000C000A804
:10091D0043120107D000C000A842120107D000C049
:10092D0000A841120107D000C0E0740114120102A9
:10093D00D0E0E54554F0C460030209E3C0E0742043
:10094D001200B6D0E0E545540F60030209E3C0E0A4
:10095D0074201200B6D0E0E54454F0C460030209DF
:10096D00E3C0E074201200B6D0E0E544540F6003FC
:10097D000209E3C0E074201200B6D0E0E54354F064
:10098D00C460030209E3C0E074201200B6D0E0E5B4
:10099D0043540F60030209E3C0E074201200B6D087
:1009AD00E0E54254F0C460030209E3C0E074201294
:1009BD0000B6D0E0E542540F60030209E3C0E074D5
:1009CD00201200B6D0E0E54154F0C47009C0E074C7
:1009DD00201200B6D0E02275A700C2CFC0E0C0D073
:1009ED00200020E533B4220FE534B4560AD2007549
:1009FD003300753400800CE5332401F533E53434D0
:100A0D0000F534300137E53045314532602974FF4A
:100A1D001530B530071531B531021532D2A0120A95
:100A2D005F75A730C0E0C454F0F584D0E0C4540F16
:100A3D00F58575A7008006C201D283C2A0D0D0D0A3
:100A4D00E03210990280FBF5992210980280FBE5A7
:100A5D009922F5A330FFFDC2FFE5A322C2837406E0
:100A6D00120A5FD28322C2837405120A5F74551273
:100A7D000A5FD28320E0EF227597DE7597AD75FF83
:100A8D008075EF0675A71075C12075A70075A900B3
:100A9D0075A900E5A930E7FB75A90375A903E5A9BB
:100AAD0030E7FB75A70053F4FE43B00143D4084370
:100ABD00D5E043CC3C75A41D75E10375E21075E3DB
:100ACD0040759810758DE6858D8B53890F43892060
:100ADD00D28ED29975A73075888875980075A22227
:100AED0075918075920275840075850875A70075DE
:100AFD00A20075A14075F801D283C2A0C28CE58910
:100B0D0054F04405F58975C800438E1075CA3F75BC
:100B1D00CBF375CFFF75CEFFD2ADD2CAC2017533FF
:100B2D0000753200753100753000D2AF22120C21E4
:100B3D0075817F120A851200C0C0E0740114120184
:100B4D0002D0E0C083C082C0E090038D1200F5D0CA
:100B5D00E0D082D0832098D5C28C758C00758A0028
:100B6D00D28CC2003000FDC28C858A35858C3675DD
:100B7D00370075380075350A7536007537007538CC
:100B8D0000753902753A00753B00753C00120297ED
:100B9D0075390A753A00753B00753C001201E28506
:100BAD00353985363A85373B85383C858A35858C90
:100BBD0036753700753800120297753958753A0039
:100BCD00753B00753C0012032485353985363A8511
:100BDD00373B85383C753500753644753795753816
:100BED000812032412011D12080FC0E0740E141216
:100BFD000100D0E0C083C082C0E090039A1200F5DE
:100C0D00D0E0D082D083E5304531453270171203E4
:100C1D009D020B62120A57B4230BC201D283C2A0EC
:100C2D00120A578003020B62B43024C283749F12E0
:100C3D000A5F7455120A5F120A4F7455120A5F1239
:100C4D000A4F7455120A5F120A4FD283020B62B417
:100C5D003117120A69C28374C7120A5FD283120A4E
:100C6D00737401120A4F020B62B43235120A69C253
:100C7D00837402120A5F120A57120A5F120A571280
:100C8D000A5F120A57120A5F120A57F8120A571210
:100C9D000A5FD8F8D283120A737401120A4F020B3D
:100CAD0062B4332CC2837403120A5F120A57120AFC
:100CBD005F120A57120A5F120A57120A5F120A5779
:100CCD00F87455120A5F120A4FD8F6D283020B62DE
:100CDD00B43436C201D283C2837403120A5F120A7E
:100CED0057120A5F120A57120A5F120A57120A5F49
:100CFD00120A57F532120A57F531120A57F53074A8
:100D0D0000120A5FD201020B62B4355C120A57FD64
:100D1D00120A57FC120A57FB0B0C0D75A72075CE46
:100D2D0008C2837403120A5FE4120A5FE4120A5FB9
:100D3D00E4120A5FF5A3800B30FFFDC2FFE5A3F5BA
:100D4D00A3F5CADBF3DCF1DDEF30FFFDC2FFE5A358
:100D5D00D28375CE01E5CB120A4F75CE00E5CB12CD
:100D6D000A4F75A700020B62B43635120A69C283A9
:100D7D007402120A5F120A57120A5F120A57120AF8
:100D8D005F120A57120A5F120A57F97800E9120A20
:100D9D005FD8FAD283120A737401120A4F020B62E2
:030DAD00020B62D4
:00000001FF
