:0300000002016B8F
:0100030032CA
:01000B0032C2
:0100130032BA
:01001B0032B2
:0100230032AA
:10005B0002005E75A700C2CFC0E0C0D0E5304531CD
:10006B004532602974FF1530B530071531B53102B3
:10007B001532D2A01200B375A730C0E0C454F0F50E
:10008B0084D0E0C4540FF58575A7008006C2CAD290
:10009B0083C2A0D0D0D0E03210990280FBF5992218
:1000AB0010980280FBE59922F5A330FFFDC2FFE516
:1000BB00A322C28374061200B3D28322C2837405B7
:1000CB001200B374551200B3D28320E0EF22759760
:1000DB00DE7597AD75FF8075EF0675A71075C1209E
:1000EB0075A70075A90075A900E5A930E7FB75A9EF
:1000FB000375A903E5A930E7FB75A70053F4FE438D
:10010B00B00175A41D75E10375E20075E3407598A8
:10011B0010758DE6858D8B53890F438920D28ED236
:10012B009975A73075888875980075A2227591808E
:10013B0075920275840075850875A70075A2007508
:10014B00A14075F801D283C2A075C800438E10750B
:10015B00CA3F75CBF375CFFF75CEFFD2ADD2AF22B1
:10016B0075817F1200D920983720B7FA30B7FDC2BE
:10017B00CAD283C2A0C28374031200B374081200E4
:10018B00B374C91200B374691200B374001200B3D4
:10019B0075320175314E75303ED2A0D2CA02017153
:1001AB001200ABB423C0C2CAD283C2A01200ABB43C
:1001BB003024C283749F1200B374551200B3120023
:1001CB00A374551200B31200A374551200B312009E
:1001DB00A3D283020171B431171200BDC28374C75D
:1001EB001200B3D2831200C774011200A302017173
:1001FB00B432351200BDC28374021200B31200ABCD
:10020B001200B31200AB1200B31200AB1200B31208
:10021B0000ABF81200AB1200B3D8F8D2831200C7B0
:10022B0074011200A3020171B4332CC28374031244
:10023B0000B31200AB1200B31200AB1200B31200EA
:10024B00AB1200B31200ABF874551200B31200A33B
:10025B00D8F6D283020171B43436C2CAD283C283B8
:10026B0074031200B31200AB1200B31200AB1200F6
:10027B00B31200AB1200B31200ABF5321200ABF5A8
:10028B00311200ABF53074001200B3D2CA02017107
:10029B00B4355C1200ABFD1200ABFC1200ABFB0BD8
:1002AB000C0D75A72075CE08C28374031200B3E43E
:1002BB001200B3E41200B3E41200B3F5A3800B30C9
:1002CB00FFFDC2FFE5A3F5A3F5CADBF3DCF1DDEF20
:1002DB0030FFFDC2FFE5A3D28375CE01E5CB120043
:1002EB00A375CE00E5CB1200A375A700020171B474
:1002FB0036351200BDC28374021200B31200AB126A
:10030B0000B31200AB1200B31200AB1200B3120019
:10031B00ABF97800E91200B3D8FAD2831200C77494
:0A032B00011200A30201710201712A
:00000001FF
